:100000000C94E2130C9413140C9413140C94131406
:100010000C9413140C9413140C9413140C941314C4
:100020000C9413140C9413140C9413140C941314B4
:100030000C9413140C94A4250C9413140C94131402
:100040000C9413140C9413140C9413140C94131494
:100050000C9413140C9413140C9413140C94642621
:100060000C9413140C942E260C9404260C94131444
:100070000C9413140C9413140C9413140C94131464
:100080000C9413140C9413140C9413140C94131454
:100090000C9413140C9413140C9413140C94131444
:1000A0000C9413140C9413140C9413140C94131434
:1000B0000C9413140C9413140C9413140C94131424
:1000C0000C9413140C9413140C9413140C94131414
:1000D0000C9413140C9413140C9413140C94131404
:1000E0000C9413140C94D4140C9479170C941B16C0
:1000F0000C94A7170C9411160C94F1150C94DC15A4
:100100000C9409160C948D170C94B1140C9463176D
:100110000C94E4150C94F5150C94FB150C94E01557
:100120000C946A170C9403160C94DE170C94152388
:100130000C94EB150C9416160C9484140C94CA179A
:100140000C94E8150C94FF150C9483170C941A1555
:100150000C949D170C940D160C94D6150C94B11795
:100160000C9417160C94AE260C9498340C94BB1770
:100170000C94D4170C946F170C94FC170C94F21772
:100180000C9495170C94E8170C94C0140C946715F4
:100190000C94E21400407A10F35A00A0724E180931
:1001A0000010A5D4E80000E87648170000E40B54DE
:1001B000020000CA9A3B000000E1F50500008096AD
:1001C0009800000040420F000000A08601000000DF
:1001D000102700000000E803000000006400000099
:1001E00000000A00000000000100000000002C7662
:1001F000D888DC674F0823DFC1DFAE59E1B1B7967D
:10020000E5E3E453C63AE651997696E8E6C28426D9
:10021000EB898C9B62ED407C6FFCEFBC9C9F40F2B5
:10022000BAA56FA5F490055A2AF75C936B6CF96731
:100230006DC11BFCE0E40D47FEF520E6B500D0EDF6
:10024000902E0300943577050080841E080000205E
:100250004E0A000000C80C333333330F986E1283FC
:100260001141EF8D2114893BE65516CFFEE6DB18D0
:10027000D1844B381BF77C1D901DA4BBE424203295
:1002800084725E228100C9F124ECA1E53D270000C3
:100290002100240027002A002D0030003300010136
:1002A0000000040107010A010000200023002600CD
:1002B00029002C002F00320000010000030106017C
:1002C0000901010210202008081020401020408061
:1002D000020102010804020101020408102040800A
:1002E0008040201008040201800402018040201098
:1002F00008040201080402010102040810204080E1
:10030000010204081020408000002200250028007F
:100310002B002E003100340002010000050108010D
:100320000B01050505050705080808080202020279
:100330000A0A080804040404010101010101010181
:100340000303030303030303040707070C0C0C0C4C
:100350000C0C0C0C02020202060606060606060635
:100360000B0B0B0B0B0B0B0B0200000A0B02090C07
:100370000D0E08070304010000000000000000004B
:10038000000000000000000000000000000000006D
:10039000000000000012111000000000000000002A
:1003A000000000000000000000000000000000004D
:1003B000000000000000000000000000000000003D
:1003C000000000000000000000000000000000002D
:1003D000000000000000000000000000000000001D
:1003E000000000000000000000000000000000000D
:1003F000000000000000000000000000000000FC01
:10040000FC030333330303030333330303FCFCFF15
:10041000FF00000C0C3C3C3C3C0C0C0000FFFF03BC
:10042000030C0C0C0C0C0C0C0C0C0C0C0C03030033
:10043000000000000000000000000000000000FCC0
:10044000FCFFFFCFCFFFFFFFFFCFCFFFFFFCFCFF85
:10045000FFFFFFF3F3C3C3C3C3F3F3FFFFFFFF03C8
:10046000030F0F0F0F0F0F0F0F0F0F0F0F030300CF
:10047000000000000000000000000000000000C0BC
:10048000C0F0F0F0F0C0C0F0F0F0F0C0C000003FED
:100490003FFFFFFFFFFFFFFFFFFFFF3F3F000000A9
:1004A00000000003030F0F03030000000000000022
:1004B000000000000000000000000000000000003C
:1004C000000000C0C0F0F0C0C00000000000000C40
:1004D0000C3F3FFFFFFFFFFFFF3F3F0C0C00000002
:1004E0000000000000030300000000000000000006
:1004F00000000000000000000000000000000000FC
:10050000000000F0F0FCFCFCFCF0F000000000FF3C
:10051000FF3F3F3F3FC0C0C0C03F3F3F3FFFFF00E6
:100520000000000C0C0F0F0F0F0C0C00000000005F
:1005300000000000000000000000000000000000BB
:1005400000C0C0F0F0FCFCFCFCF0F0C0C000000FEC
:100550000F3F3F3F3FFFFFFFFF3F3F3F3F0F0F007A
:100560000000000C0C0F0F0F0F0C0C00000000001F
:10057000000000000000000000000000000000007B
:10058000000000000000000000000000000000006B
:100590000000003C3CFFFFFFFF3C3C00000000006F
:1005A000000000000000000000000000000000F05B
:1005B000F0F0F0F0F0F0F0F0F0F0F0F0F0F0F0FF2C
:1005C000FFFFFFFFFFFFFFFFFFFFFFFFFFFFFFFF3B
:1005D000FFFFFFC3C300000000C3C3FFFFFFFFFF17
:1005E000FFFFFFFFFFFFFFFFFFFFFFFFFFFFFF0F0B
:1005F0000F0F0F0F0F0F0F0F0F0F0F0F0F0F0F001A
:10060000000000C0C0C0C0C0C0C0C00000000000EA
:1006100000FFFFC3C300000000C3C3FFFF000000D2
:10062000000000030303030303030300000000F0C2
:10063000F0F0F0F0F0F0F0F0F0F0F0F0F0F0F0FFAB
:10064000FFFFFF3F3F3F3F3F3F3F3FFFFFFFFFFFBA
:10065000FF00003C3CFFFFFFFF3C3C0000FFFFFFB2
:10066000FFFFFFFCFCFCFCFCFCFCFCFFFFFFFF0FA2
:100670000F0F0F0F0F0F0F0F0F0F0F0F0F0F0F0099
:10068000000000C0C0F3F33F3F0F0FFFFF0000FC6E
:10069000FCFFFF03030303FFFFFCFC00000000035B
:1006A000030F0F0C0C0C0C0F0F03030000000000D5
:1006B000000000000000000000000000000000003A
:1006C00000FCFCFFFF03030303FFFFFCFC00000032
:1006D00000C3C3CFCFFCFCFCFCCFCFC3C3000000E2
:1006E00000000000000F0F0F0F00000000000000CE
:1006F00000000000000000000000000000000000FA
:10070000000000FFFFFFFF333333333F3F3F3F0025
:1007100000C0C0FFFFFFFF00000000000000000F4E
:100720000F0F0F0F0F030300000000000000000078
:1007300000000000000000000000000000000000B9
:1007400000FFFFFFFF333333333333FFFFFFFF007F
:1007500000FFFFFFFF00000000C0C0FFFFFFFF3FE2
:100760003F3F3F0F0F000000000F0F0F0F0303006C
:10077000000000000000000000000000000000C0B9
:10078000C0C0C00000FCFCFCFC0000C0C0C0C0CC6D
:10079000CCCCCC3F3FF3F3F3F33F3FCCCCCCCC00FD
:1007A00000000000000F0F0F0F000000000000C04D
:1007B000C00000000000000000000000000000FF7A
:1007C000FFFFFFFCFCF0F0C0C0000000000000FFD5
:1007D000FFFFFFFFFF3F3F0F0F0303030300000F67
:1007E0000F030300000000000000000000000000F4
:1007F0000000000000000000000000C0C000000079
:10080000000000C0C0F0F0FCFCFFFFFFFF00000391
:100810000303030F0F3F3FFFFFFFFFFFFF00000039
:1008200000000000000000000003030F0F000000A4
:1008300000000000000000000000000000000000B8
:100840000030303C3CFFFFFFFF3C3C3030000000FC
:1008500000C0C0C0C0FFFFFFFFC0C0C0C00000009C
:1008600000000003030F0F0F0F0303000000000040
:100870000000000000000000000000000000000078
:1008800000FFFFFFFF00000000FFFFFFFF00000070
:10089000003F3F3F3F000000003F3F3F3F00000060
:1008A000000F0F0F0F000000000F0F0F0F000000D0
:1008B000000000000000000000000000000000FC3C
:1008C000FCFFFF0303FFFFFFFF0303FFFFFFFF002A
:1008D0000003030303FFFFFFFF0000FFFFFFFF0014
:1008E00000000000000F0F0F0F00000F0F0F0F0090
:1008F00000C0C0C0C0C0C0C0C0C0C0000000000375
:1009000003CFCFFCFC3030F0F0C3C3030300000F73
:100910000F3F3FF0F0C0C0F0F03F3F0F0F00000C62
:100920000C3C3C3030303033333F3F0C0C00000087
:1009300000000000000000000000000000000000B7
:10094000000000000000000000000000000000F0B7
:10095000F0F0F0F0F0F0F0F0F0F0F0F0F000000F58
:100960000F0F0F0F0F0F0F0F0F0F0F0F0F000000C4
:100970000000000000000000000000000000000077
:100980000030303C3CFFFFFFFF3C3C3030000000BB
:1009900000C0C0C0C0FFFFFFFFC0C0C0C00000005B
:1009A00000303033333F3F3F3F33333030000000BF
:1009B0000000000000000000000000000000000037
:1009C0000030303C3CFFFFFFFF3C3C30300000007B
:1009D0000000000000FFFFFFFF000000000000001B
:1009E00000000000000F0F0F0F00000000000000CB
:1009F00000000000000000000000000000000000F7
:100A00000000000000FFFFFFFF00000000000000EA
:100A100000C0C0C0C0FFFFFFFFC0C0C0C0000000DA
:100A200000000003030F0F0F0F030300000000007E
:100A300000000000000000000000000000000000B6
:100A40000000000000C0C0C0C00000000000000C9A
:100A50000C0C0C0C0CCCCCFFFF3F3F0C0C0000002E
:100A60000000000000000000000000000000000086
:100A70000000000000000000000000000000000076
:100A8000000000C0C0C0C000000000000000000C5A
:100A90000C3F3FFFFFCCCC0C0C0C0C0C0C000000EE
:100AA0000000000000000000000000000000000046
:100AB000000000000000000000000000000000C076
:100AC000C0C0C0000000000000000000000000FFE7
:100AD000FFFFFFC0C0C0C0C0C0C0C0C0C000000099
:100AE0000000000000000000000000000000000006
:100AF00000000000000000000000000000000000F6
:100B0000000000C0C00000C0C00000000000000CD9
:100B10000C3F3FFFFF0C0CFFFF3F3F0C0C000000A1
:100B200000000000000000000000000000000000C5
:100B300000000000000000000000000000000000B5
:100B4000000000C0C0F0F0C0C0000000000000C005
:100B5000C0FCFCFFFFFFFFFFFFFCFCC0C000000368
:100B6000030303030303030303030303030000005E
:100B7000000000000000000000000000000000F085
:100B8000F0F0F0F0F0F0F0F0F0F0F0F0F000000035
:100B9000000F0FFFFFFFFFFFFF0F0F00000000001F
:100BA000000000000003030000000000000000003F
:100BB0000000000000000000000000000000000035
:100BC0000000000000000000000000000000000025
:100BD0000000000000000000000000000000000015
:100BE0000000000000000000000000000000000005
:100BF00000000000000000000000000000000000F5
:100C0000000000FCFCFFFFFFFFFCFC0000000000F8
:100C100000000000003F3F3F3F00000000000000D8
:100C200000000000000F0F0F0F0000000000000088
:100C300000C0C0C0C000000000C0C0C0C0000000B4
:100C4000000F0F3F3F000000003F3F0F0F0000006C
:100C50000000000000000000000000000000000094
:100C60000000000000000000000000000000000084
:100C7000000000000000000000000000000000C0B4
:100C8000C0FCFCFCFCC0C0FCFCFCFCC0C00000C004
:100C9000C0FFFFFFFFC0C0FFFFFFFFC0C00000009C
:100CA000000F0F0F0F00000F0F0F0F0000000000CC
:100CB0000000000000F0F0F0F0000000000000FC78
:100CC000FCFFFF0303030303030F0F3C3C0000F092
:100CD000F0C3C3030303030303FFFFFCFC00000096
:100CE00000030303033F3F3F3F03030000000000F6
:100CF000000000000000000000000000000000F004
:100D0000F0F0F0000000000000C0C0F0F0000000B3
:100D100000C0C0F0F03C3C0F0F0303000000000FC8
:100D20000F03030000000000000F0F0F0F00000072
:100D300000000000000000000000000000000000B3
:100D4000003C3CFFFFC3C3FFFF3C3C00000000FC35
:100D5000FCFFFF03030F0FFCFCFFFF030300000376
:100D6000030F0F0C0C0C0C03030F0F0C0C000000F6
:100D7000000000C0C0C0C000000000000000000073
:100D80000030303F3F0F0F00000000000000000067
:100D90000000000000000000000000000000000053
:100DA0000000000000000000000000000000000043
:100DB0000000000000000000000000000000000033
:100DC000000000F0F0FCFC0F0F0303000000000027
:100DD000000000FFFFFFFF00000000000000000017
:100DE000000000000003030F0F0C0C0000000000C7
:100DF00000000000000000000000000000000000F3
:100E000000000003030F0FFCFCF0F00000000000E6
:100E100000000000000000FFFFFFFF0000000000D6
:100E20000000000C0C0F0F03030000000000000086
:100E300000000000000000000000000000000000B2
:100E400000C0C0C0C000000000C0C0C0C000000C96
:100E50000CCCCCFFFF3F3F3F3FFFFFCCCC0C0C0046
:100E60000000000000000000000000000000000082
:100E70000000000000000000000000000000000072
:100E80000000000000C0C0C0C00000000000000062
:100E9000000C0C0C0CFFFFFFFF0C0C0C0C000000F6
:100EA0000000000000000000000000000000000042
:100EB0000000000000000000000000000000000032
:100EC0000000000000000000000000000000000022
:100ED0000000000000C0C0C0C00000000000000012
:100EE00000000030303F3F0F0F0000000000000006
:100EF00000000000000000000000000000000000F2
:100F00000000000000000000000000000000000CD5
:100F10000C0C0C0C0C0C0C0C0C0C0C0C0C00000035
:100F200000000000000000000000000000000000C1
:100F300000000000000000000000000000000000B1
:100F400000000000000000000000000000000000A1
:100F50000000000000000000000000000000000091
:100F600000000000000F0F0F0F0000000000000045
:100F70000000000000000000000000000000000071
:100F8000000000000000000000C0C0F0F000000001
:100F900000C0C0F0F03C3C0F0F0303000000000F46
:100FA0000F0303000000000000000000000000002C
:100FB000000000000000000000000000000000FC35
:100FC000FCFFFF03030303C3C3FFFFFCFC0000FFA0
:100FD000FFFFFF30300F0F0000FFFFFFFF00000397
:100FE000030F0F0C0C0C0C0C0C0F0F030300000074
:100FF00000000000000000000000000000000000F1
:101000000030303C3CFFFFFFFF000000000000000C
:101010000000000000FFFFFFFF00000000000000D4
:10102000000C0C0C0C0F0F0F0F0C0C0C0C00000024
:101030000000000000000000000000000000000CA4
:101040000C0F0F03030303C3C3FFFF3C3C0000C0AE
:10105000C0F0F03C3C0F0F03030000000000000F45
:101060000F0F0F0C0C0C0C0C0C0F0F0F0F000000CF
:101070000000000000000000000000000000000C64
:101080000C0F0F030303030303FFFFFCFC0000002E
:10109000000000030303030303FFFFFCFC00000345
:1010A000030F0F0C0C0C0C0C0C0F0F0303000000B3
:1010B0000000000000000000000000000000000030
:1010C00000C0C0F0F03C3CFFFFFFFF000000000F3D
:1010D0000F0F0F0C0C0C0CFFFFFFFF0C0C0000009F
:1010E00000000000000C0C0F0F0F0F0C0C00000094
:1010F000000000000000000000000000000000FFF1
:10110000FFFFFF03030303030303030303000003C1
:10111000030303030303030F0FFFFFFCFC000003A3
:10112000030F0F0C0C0C0C0C0C0F0F030300000032
:10113000000000000000000000000000000000F0BF
:10114000F0FCFC0F0F03030303000000000000FF8E
:10115000FFFFFF030303030303FFFFFCFC00000387
:10116000030F0F0C0C0C0C0C0C0F0F0303000000F2
:101170000000000000000000000000000000000F60
:101180000F0F0F030303030303FFFFFFFF00000024
:10119000000000F0F0FCFC0F0F0303000000000053
:1011A0000000000F0F0F0F00000000000000000003
:1011B000000000000000000000000000000000FC33
:1011C000FCFFFF030303030303FFFFFCFC0000FC21
:1011D000FCFFFF030303030303FFFFFCFC0000030A
:1011E000030F0F0C0C0C0C0C0C0F0F030300000072
:1011F000000000000000000000000000000000FCF3
:10120000FCFFFF030303030303FFFFFCFC000000DC
:10121000000303030303030303FFFFFFFF000000BA
:10122000000C0C0C0C0C0C0F0F0303000000000052
:1012300000000000000000000000000000000000AE
:101240000000000000F0F0F0F000000000000000DE
:101250000000000000C0C0C0C0000000000000008E
:101260000000000000030303030000000000000072
:10127000000000000000000000000000000000006E
:101280000000000000F0F0F0F0000000000000009E
:101290000000000000C0C0C0C0000000000000004E
:1012A0000000000C0C0F0F03030000000000000002
:1012B000000000000000000000000000000000002E
:1012C0000000000000C0C0F0F03C3C0C0C0000002E
:1012D000000C0C3F3FF3F3C0C00000000000000012
:1012E0000000000000000003030F0F0C0C000000C2
:1012F00000000000000000000000000000000000EE
:10130000000000000000000000000000000000C31A
:10131000C3C3C3C3C3C3C3C3C3C3C3C3C3000000E6
:1013200000000000000000000000000000000000BD
:1013300000000000000000000000000000000000AD
:10134000000C0C3C3CF0F0C0C000000000000000AD
:101350000000000000C0C0F3F33F3F0C0C00000091
:10136000000C0C0F0F030300000000000000000041
:101370000000000000000000000000000000003C31
:101380003C3F3F03030303C3C3FFFF3C3C0000009B
:1013900000000000003F3F3F3F0000000000000051
:1013A00000000000000F0F0F0F0000000000000001
:1013B000000000000000000000000000000000F03D
:1013C000F0FCFC0C0C0C0C0C0CFCFCF0F00000FF16
:1013D000FFFFFF0000FFFFFFFFFFFF3F3F00000395
:1013E000030F0F0C0C0C0C0C0C0C0C00000000007C
:1013F000000000000000000000000000000000C02D
:10140000C0F0F03C3C0F0F3C3CF0F0C0C00000FFCF
:10141000FFFFFF0C0C0C0C0C0CFFFFFFFF00000F7C
:101420000F0F0F0000000000000F0F0F0F00000053
:1014300000000000000000000000000000000003A9
:1014400003FFFFFFFF03030303FFFFFCFC0000009B
:1014500000FFFFFFFF03030303FFFFFCFC00000C82
:101460000C0F0F0F0F0C0C0C0C0F0F0303000000E0
:10147000000000000000000000000000000000F07C
:10148000F0FCFC0F0F030303030F0F3C3C0000FFB5
:10149000FFFFFF0000000000000000C0C0000000CF
:1014A0000003030F0F0C0C0C0C0F0F0303000000C4
:1014B0000000000000000000000000000000000329
:1014C00003FFFFFFFF03030F0FFCFCF0F000000021
:1014D00000FFFFFFFF00000000FFFFFFFF00000C08
:1014E0000C0F0F0F0F0C0C0F0F0303000000000078
:1014F00000000000000000000000000000000003E9
:1015000003FFFFFFFF0303C3C30F0F3F3F000000B4
:1015100000FFFFFFFF03030F0F0000C0C000000C1F
:101520000C0F0F0F0F0C0C0C0C0F0F0F0F00000007
:1015300000000000000000000000000000000003A8
:1015400003FFFFFFFF0303C3C30F0F3F3F00000074
:1015500000FFFFFFFF03030F0F0000000000000C5F
:101560000C0F0F0F0F0C0C0000000000000000001B
:10157000000000000000000000000000000000F07B
:10158000F0FCFC0F0F030303030F0F3C3C0000FFB4
:10159000FFFFFF00000C0C0C0CFCFCFCFC0000002E
:1015A0000003030F0F0C0C0C0C03030F0F000000C3
:1015B000000000000000000000000000000000FF2C
:1015C000FFFFFF000000000000FFFFFFFF0000FF23
:1015D000FFFFFF030303030303FFFFFFFF00000FF1
:1015E0000F0F0F0000000000000F0F0F0F00000092
:1015F00000000000000000000000000000000000EB
:101600000000000303FFFFFFFF03030000000000D2
:101610000000000000FFFFFFFF00000000000000CE
:101620000000000C0C0F0F0F0F0C0C00000000004E
:1016300000000000000000000000000000000000AA
:1016400000000000000303FFFFFFFF03030000F0A2
:10165000F0F0F000000000FFFFFFFF0000000003BB
:10166000030F0F0C0C0C0C0F0F0303000000000005
:101670000000000000000000000000000000000367
:1016800003FFFFFFFF0000F0F0FFFF0F0F0000005F
:1016900000FFFFFFFF0F0F3F3FF0F0C0C000000C46
:1016A0000C0F0F0F0F000000000F0F0F0F000000B6
:1016B0000000000000000000000000000000000327
:1016C00003FFFFFFFF030300000000000000000015
:1016D00000FFFFFFFF000000000000C0C000000C82
:1016E0000C0F0F0F0F0C0C0C0C0F0F0F0F00000046
:1016F000000000000000000000000000000000FFEB
:10170000FFFFFFFCFCF0F0FCFCFFFFFFFF0000FF11
:10171000FFFFFF000003030000FFFFFFFF00000FBB
:101720000F0F0F0000000000000F0F0F0F00000050
:10173000000000000000000000000000000000FFAA
:10174000FFFFFFFCFCF0F0C0C0FFFFFFFF0000FF49
:10175000FFFFFF000003030F0FFFFFFFFF00000F5D
:101760000F0F0F0000000000000F0F0F0F00000010
:10177000000000000000000000000000000000F079
:10178000F0FCFC0F0F03030F0FFCFCF0F00000FF58
:10179000FFFFFF000000000000FFFFFFFF00000050
:1017A0000003030F0F0C0C0F0F03030000000000D9
:1017B0000000000000000000000000000000000326
:1017C00003FFFFFFFF03030303FFFFFCFC00000018
:1017D00000FFFFFFFF030303030303000000000CEF
:1017E0000C0F0F0F0F0C0C00000000000000000099
:1017F000000000000000000000000000000000FCED
:10180000FCFFFF030303030303FFFFFCFC0000FFD7
:10181000FFFFFF0000C0C00000FFFFFFFF0000034C
:10182000030F0F0C0C0F0FFFFFFFFFC3C3000000DF
:1018300000000000000000000000000000000003A5
:1018400003FFFFFFFF03030303FFFFFCFC00000097
:1018500000FFFFFFFF03030F0FFFFFF0F000000C7E
:101860000C0F0F0F0F000000000F0F0F0F000000F4
:101870000000000000000000000000000000003C2C
:101880003CFFFFC3C3030303033F3F3C3C0000C0D6
:10189000C0C0C0030303030F0FFCFCF0F000000303
:1018A000030F0F0C0C0C0C0C0C0F0F0303000000AB
:1018B0000000000000000000000000000000000028
:1018C000003F3F0F0FFFFFFFFF0F0F3F3F000000E4
:1018D0000000000000FFFFFFFF000000000000000C
:1018E0000000000C0C0F0F0F0F0C0C00000000008C
:1018F000000000000000000000000000000000FFE9
:10190000FFFFFF000000000000FFFFFFFF0000FFDF
:10191000FFFFFF000000000000FFFFFFFF000003CB
:10192000030F0F0C0C0C0C0C0C0F0F03030000002A
:10193000000000000000000000000000000000FFA8
:10194000FFFFFF000000000000FFFFFFFF00003F5F
:101950003FFFFFC0C00000C0C0FFFF3F3F000000CE
:1019600000000003030F0F0303000000000000004D
:10197000000000000000000000000000000000FF68
:10198000FFFFFF000000000000FFFFFFFF0000FF5F
:10199000FFFFFFC0C0FCFCC0C0FFFFFFFF00000056
:1019A000000F0F0F0F00000F0F0F0F0000000000BF
:1019B0000000000000000000000000000000000F18
:1019C0000FFFFFF0F00000F0F0FFFF0F0F0000002E
:1019D00000F0F0FFFF0F0FFFFFF0F0000000000F1E
:1019E0000F0F0F0000000000000F0F0F0F0000008E
:1019F00000000000000000000000000000000000E7
:101A000000FFFFFFFF00000000FFFFFFFF000000DE
:101A10000000000303FFFFFFFF03030000000000BE
:101A20000000000C0C0F0F0F0F0C0C00000000004A
:101A30000000000000000000000000000000003F67
:101A40003F0F0F03030303C3C3FFFF3F3F0000C06B
:101A5000C0F0F03C3C0F0F03030000C0C000000FBB
:101A60000F0F0F0C0C0C0C0C0C0F0F0F0F000000C5
:101A70000000000000000000000000000000000066
:101A8000000000FFFFFFFF0303030300000000004E
:101A9000000000FFFFFFFF0000000000000000004A
:101AA0000000000F0F0F0F0C0C0C0C0000000000CA
:101AB000000000000000000000000000000000FC2A
:101AC000FCF0F0C0C00000000000000000000000BA
:101AD0000003030F0F3F3FFCFCF0F0C0C00000000C
:101AE00000000000000000000003030F0F000000D2
:101AF00000000000000000000000000000000000E6
:101B000000000003030303FFFFFFFF0000000000CD
:101B100000000000000000FFFFFFFF0000000000C9
:101B20000000000C0C0C0C0F0F0F0F000000000049
:101B3000000000C0C0F0F0C0C00000000000000CB9
:101B40000C0F0F0303000003030F0F0C0C00000029
:101B50000000000000000000000000000000000085
:101B60000000000000000000000000000000000075
:101B70000000000000000000000000000000000065
:101B80000000000000000000000000000000000055
:101B9000000000000000000000000000000000C085
:101BA000C0C0C0C0C0C0C0C0C0C0C0C0C0C0C000F5
:101BB000000000F0F0F0F000000000000000000065
:101BC0000000000000030303030000000000000009
:101BD0000000000000000000000000000000000005
:101BE00000000000000000000000000000000000F5
:101BF00000000000000000000000000000000000E5
:101C000000C0C0C0C0C0C0C0C0000000000000F0E4
:101C1000F0FCFC0C0C0C0CFFFFFFFF0000000003AD
:101C2000030F0F0C0C0C0C03030F0F0C0C00000027
:101C300000000000000000000000000000000003A1
:101C400003FFFFFFFFC0C0C0C00000000000000095
:101C500000FFFFFFFF00000303FFFFFCFC00000C80
:101C60000C0F0F03030C0C0C0C0F0F0303000000F0
:101C70000000000000000000000000000000000064
:101C800000C0C0C0C0C0C0C0C0C0C000000000FFD5
:101C9000FFFFFF0000000000000303030300000338
:101CA000030F0F0C0C0C0C0C0C0F0F0303000000A7
:101CB0000000000000000000000000000000000024
:101CC000000000C0C0C3C3FFFFFFFF00000000FC16
:101CD000FCFFFF03030000FFFFFFFF000000000305
:101CE000030F0F0C0C0C0C03030F0F0C0C00000067
:101CF00000000000000000000000000000000000E4
:101D000000C0C0C0C0C0C0C0C0C0C000000000FF54
:101D1000FFFFFF0C0C0C0C0C0C0F0F0F0F0000033F
:101D2000030F0F0C0C0C0C0C0C0F0F030300000026
:101D300000000000000000000000000000000000A3
:101D400000FCFCFFFF03030F0F3C3C0000000003FE
:101D500003FFFFFFFF030300000000000000000C72
:101D60000C0F0F0F0F0C0C00000000000000000013
:101D70000000000000000000000000000000000063
:101D800000C0C0C0C0C0C00000C0C0C0C00000FFD4
:101D9000FFFFFF00000000FFFFFFFF00000000C387
:101DA000C3CFCF0C0C0C0CFFFFFFFF0000000000A6
:101DB0000003030303030303030000000000000308
:101DC00003FFFFFFFF0000C0C0C0C0000000000014
:101DD00000FFFFFFFF03030000FFFFFFFF00000CF9
:101DE0000C0F0F0F0F000000000F0F0F0F0000006F
:101DF00000000000000000000000000000000000E3
:101E0000000000C0C0CFCFCFCF0000000000000016
:101E10000000000000FFFFFFFF00000000000000C6
:101E20000000000C0C0F0F0F0F0C0C000000000046
:101E300000000000000000000000000000000000A2
:101E400000000000000000C0C0CFCFCFCF000000D6
:101E5000000000000000000000FFFFFFFF00000086
:101E600000F0F0F0F000000000FFFFFFFF000000B6
:101E70000000000303030303030303000000000347
:101E800003FFFFFFFF00000000C0C0C0C000000053
:101E900000FFFFFFFF3C3CFFFFC3C3000000000C3E
:101EA0000C0F0F0F0F000000000F0F0F0F000000AE
:101EB0000000000000000000000000000000000022
:101EC0000000000303FFFFFFFF0000000000000010
:101ED0000000000000FFFFFFFF0000000000000006
:101EE0000000000C0C0F0F0F0F0C0C000000000086
:101EF000000000000000000000000000000000C022
:101F0000C0C0C0C0C00000C0C0C0C000000000FF12
:101F1000FFFFFF0303FFFF0303FFFFFFFF00000FAF
:101F20000F0F0F00000F0F00000F0F0F0F0000002A
:101F3000000000000000000000000000000000C0E1
:101F4000C0C0C00000C0C0C0C0C0C00000000000D1
:101F500000FFFFFFFF00000000FFFFFFFF00000089
:101F6000000F0F0F0F000000000F0F0F0F000000F9
:101F70000000000000000000000000000000000061
:101F800000C0C0C0C0C0C0C0C0C0C000000000FFD2
:101F9000FFFFFF000000000000FFFFFFFF00000345
:101FA000030F0F0C0C0C0C0C0C0F0F0303000000A4
:101FB000000000000000000000000000000000C061
:101FC000C0C0C00000C0C0C0C0C0C0000000000051
:101FD00000FFFFFFFF00000000FFFFFFFF00000009
:101FE00000FFFFFFFF0C0C0C0C0F0F03030000039E
:101FF00003030303030303000000000000000000CC
:1020000000C0C0C0C0C0C00000C0C0C0C00000FF51
:10201000FFFFFF00000000FFFFFFFF0000000003C4
:10202000030F0F0C0C0C0CFFFFFFFF000000000063
:10203000000000000003030303030303030000C0C8
:10204000C0C0C00000C0C0C0C0C0C00000000000D0
:1020500000FFFFFFFF0303000003030F0F00000C4E
:102060000C0F0F0F0F0C0C00000000000000000010
:102070000000000000000000000000000000000060
:1020800000C0C0C0C0C0C0C0C0C0C00000000003CD
:10209000030F0F3C3C3030F0F0C3C30303000003D8
:1020A000030F0F0C0C0C0C0C0C0F0F0303000000A3
:1020B000000000000000000000000000000000C060
:1020C000C0C0C0FCFCFFFFC0C0C0C00000000000DA
:1020D000000000FFFFFFFF00000000000000000004
:1020E00000000003030F0F0C0C0F0F030300000090
:1020F000000000000000000000000000000000C020
:10210000C0C0C000000000C0C0C0C000000000FF90
:10211000FFFFFF00000000FFFFFFFF0000000003C3
:10212000030F0F0C0C0C0C03030F0F0C0C00000022
:10213000000000000000000000000000000000009F
:1021400000C0C0C0C000000000C0C0C0C00000008F
:1021500000FFFFFFFF00000000FFFFFFFF00000087
:1021600000000003030F0F0F0F0303000000000027
:10217000000000000000000000000000000000C09F
:10218000C0C0C0000000000000C0C0C0C00000FF10
:10219000FFFFFF0000F0F00000FFFFFFFF00000363
:1021A000030F0F0F0F03030F0F0F0F0303000000A8
:1021B000000000000000000000000000000000C05F
:1021C000C0C0C0000000000000C0C0C0C0000000CF
:1021D000000303FFFFFCFCFFFF0303000000000CF3
:1021E0000C0F0F0303000003030F0F0C0C00000083
:1021F000000000000000000000000000000000C01F
:10220000C0C0C0000000000000C0C0C0C00000FF8F
:10221000FFFFFF000000000000FFFFFFFF000003C2
:10222000030F0F0C0C0C0CCCCCFFFF3F3F00000346
:10223000030303030303030303000000000000C0C3
:10224000C0C0C0C0C0C0C0C0C0C0C0C0C0000003CB
:1022500003C3C3F0F03C3C0F0F0303000000000F6A
:102260000F0F0F0C0C0C0C0C0C0F0F0F0F000000BD
:10227000000000000000000000000000000000005E
:102280000000000000FCFCFFFF030303030000004C
:102290000003030303FFFFFCFC000000000000003C
:1022A000000000000003030F0F0C0C0C0C000000DA
:1022B000000000000000000000000000000000001E
:1022C0000000000000FFFFFFFF0000000000000012
:1022D0000000000000FCFCFCFC000000000000000E
:1022E00000000000000F0F0F0F00000000000000B2
:1022F00000000000000000000000000000000000DE
:102300000003030303FFFFFCFC00000000000000CB
:102310000000000000FCFCFFFF03030303000000BB
:10232000000C0C0C0C0F0F03030000000000000059
:102330000000000000000000000000000000000C91
:102340000C0F0F03030F0F0C0C0F0F030300000003
:10235000000000000000000000000000000000007D
:10236000000000000000000000000000000000006D
:10237000000000000000000000000000000000005D
:10238000000000C0C0F0F0C0C0000000000000FC71
:10239000FCFFFF030300000303FFFFFCFC0000033E
:1023A0000303030303030303030303030300000006
:1023B000000000000000000000000000000000001D
:1023C000000000000000007E8195B1B195817E7E05
:1023D000FFEBCFCFEBFF7E0E1F3F7E3F1F0E0008AF
:1023E0001C3E7F3E1C0800389A9FFF9F9A380010C1
:1023F000B8FCFEFCB810000000183C3C180000FFC0
:10240000FFE7C3C3E7FFFF003C664242663C00FFB4
:10241000C399BDBD99C3FF70F88888FD7F070F0081
:102420004E5FF1F15F4E00C0E0FF7F05050707C07A
:10243000FF7F0505657F3F995A3CE7E73C5A997F46
:102440003E3E1C1C08080008081C1C3E3E7F000085
:102450002466FFFF662400005F5F00005F5F0006E8
:102460000F097F7F017F7FC09ABFA5BDD9430200BE
:10247000707070707070008094B6FFFFB69480002A
:1024800004067F7F0604000010307F7F30100008B4
:1024900008082A3E1C0800081C3E2A080808003CC0
:1024A0003C202020202000081C3E08083E1C08304C
:1024B000383C3E3E3C3830060E1E3E3E1E0E0600A8
:1024C000000000000000000000065F5F0600000042
:1024D00010090801000008FFF9F9FF027E407F247F
:1024E0002E2A6B6B3A1200466630180C666200307A
:1024F0007A4F5D377A4800000407030000000000AF
:102500001C3E63410000000041633E1C00000008C7
:102510002A3E1C1C3E2A080008083E3E080800000F
:102520000080E060000000000808080808080000BB
:10253000000060600000006030180C060301003EDF
:102540007F594D477F3E0040427F7F404000006200
:102550007359496F660000226349497F36000018AD
:102560001C16537F7F5000276745457D3900003C8E
:102570007E4B4979300000030371790F0700003664
:102580007F49497F360000064F49693F1E00000021
:1025900000006666000000000080E666000000089B
:1025A0001C366341000000001414141414140000BD
:1025B0004163361C080000000203595D0702003E1B
:1025C0007F415D5D5F0E007C7E13137E7C000041C9
:1025D0007F7F49497F36001C3E63414163220041B1
:1025E0007F7F41633E1C00417F7F495D4163004125
:1025F0007F7F491D0103001C3E6341513372007F00
:102600007F08087F7F000000417F7F41000000308D
:102610007040417F3F0100417F7F081C776300418C
:102620007F7F41406070007F7F0E1C0E7F7F007FA8
:102630007F060C187F7F001C3E6341633E1C0041F7
:102640007F7F49090F06001E3F2131617F5E0041F7
:102650007F7F09197F6600266F4D49597332000349
:10266000417F7F410300007F7F40407F7F00001F4C
:102670003F60603F1F00003F7F6030607F3F00632E
:10268000771C081C776300074F78784F07000047D6
:102690006371594D677300007F7F41410000000165
:1026A00003060C183060000041417F7F00000008E5
:1026B0000C0603060C0800808080808080808000EB
:1026C00000030704000000207454543C784000418B
:1026D0007F3F4848783000387C44446C2800003004
:1026E0007848493F7F4000387C54545C18000048CB
:1026F0007E7F490306000098BCA4A4F87C04004136
:102700007F7F08047C780000447D7D4000000060ED
:10271000E08084FD7D0000417F7F10386C44000024
:10272000417F7F400000007C7C18781C7C78007C16
:102730007804047C780000387C44447C38000084B1
:10274000FCF8A4243C1800183C24A4F8FC840044A1
:102750007C784C040C1800485C5474642400000419
:10276000043E7F442400003C7C40403C7C40001CF4
:102770003C60603C1C00003C7C6030607C3C004461
:102780006C3810386C44009CBCA0A0FC7C00004C51
:1027900064745C4C64000008083E7741410000000E
:1027A000000077770000004141773E0808000002F2
:1027B0000301030203010070784C464C787000005E
:1027C000AE26983411241FBECFEFD1E2DEBFCDBFBD
:1027D00000E00CBF25E0A8E2B3E001C01D92AF35D8
:1027E000B207E1F713E0A0E0B2E0EEE8F8E700E0BE
:1027F0000BBF02C007900D92A832B107D9F713E1C1
:10280000C1EED3E100E006C021970109802FFE014F
:102810000E94FA39C03ED10780E00807A9F70E945C
:1028200008270C94353C0C9400000F931F93CF9312
:10283000DF93EC018B012FB7F89480914A049091BB
:102840004B04A0914C04B0914D042FBF8887998709
:10285000AA87BB87E881F9810284F385E02DCE0148
:10286000199597FF23C02FB7F89480914A0490914F
:102870004B04A0914C04B0914D042FBF488559855D
:102880006A857B85841B950BA60BB70B4C815D81FC
:102890006E817F8184179507A607B707D8F290E06D
:1028A00080E0DF91CF911F910F910895F80180830F
:1028B00081E090E0F6CFEEE4F4E0A089B18982E017
:1028C0008C93A485B5851C92A685B78580E18C93F1
:1028D000108EA489B58986E08C93A289B3898C91E6
:1028E00080618C93A289B3898C9188608C93A28932
:1028F000B3898C9180688C930288F389E02D808164
:102900008F7D808308950895AF92BF92CF92DF921A
:10291000EF92FF920F931F93CF93DF936C017B0194
:102920008B01040F151FEB015E01AE18BF08C01725
:10293000D10759F06991D601ED91FC910190F08198
:10294000E02DC6011995892B79F7C501DF91CF914B
:102950001F910F91FF90EF90DF90CF90BF90AF90BD
:102960000895FC01538D448D252F30E0842F90E095
:10297000821B930B541710F0CF960895019708957A
:10298000FC01918D828D981761F0A28DAE0FBF2F43
:10299000B11D5D968C91928D9F5F9F73928F90E099
:1029A00008958FEF9FEF0895FC01918D828D981708
:1029B00031F0828DE80FF11D858D90E008958FEF45
:1029C0009FEF0895FC01918D228D892F90E0805C0E
:1029D0009F4F821B91098F73992708958EE494E08D
:1029E0000E94E21421E0892B09F420E0822F08954F
:1029F000FC01A48DA80FB92FB11DA35ABF4F2C9174
:102A0000848D90E001968F739927848FA689B7896A
:102A10002C93A089B1898C91837080648C93938D61
:102A2000848D981306C00288F389E02D80818F7D04
:102A300080830895EF92FF920F931F93CF93DF93BC
:102A4000EC0181E0888F9B8D8C8D98131AC0E889EA
:102A5000F989808185FF15C09FB7F894EE89FF89B9
:102A60006083E889F98980818370806480839FBF57
:102A700081E090E0DF91CF911F910F91FF90EF9057
:102A80000895F62E0B8D10E00F5F1F4F0F73112767
:102A9000E02E8C8D8E110CC00FB607FCFACFE889A2
:102AA000F989808185FFF5CFCE010E94F814F1CF1E
:102AB000EB8DEC0FFD2FF11DE35AFF4FF0829FB716
:102AC000F8940B8FEA89FB8980818062CFCFCF9306
:102AD000DF93EC01888D8823B9F0AA89BB89E88946
:102AE000F9898C9185FD03C0808186FD0DC00FB6EC
:102AF00007FCF7CF8C9185FFF2CF808185FFEDCF6A
:102B0000CE010E94F814E9CFDF91CF91089580E0C3
:102B100090E0892B29F00E94EE1481110E940000A0
:102B200080E090E0892B49F080E090E0892B29F04B
:102B30000E94000081110E94000080E090E0892B3B
:102B400049F080E090E0892B29F00E94000081117B
:102B50000E94000080E090E0892B49F080E090E046
:102B6000892B29F00E94000081110C940000089527
:102B70008150823108F05AC0E82FF0E08827EC53EA
:102B8000FA4E8F4F0C94FA39E415E815D615DC157A
:102B9000E0151616EB15F115F515FB15FF150316C7
:102BA00009160D161616111617161B1680918000A1
:102BB0008F77809380000895809180008F7DF9CF7A
:102BC00080918000877FF5CF84B58F7784BD08958D
:102BD00084B58F7DFBCF8091B0008F778093B0005C
:102BE00008958091B0008F7DF9CF809190008F770C
:102BF000809390000895809190008F7DF9CF80910F
:102C00009000877FF5CF8091A0008F778093A00000
:102C100008958091A0008F7DF9CF8091A000877FDB
:102C2000F5CF809120018F778093200108958091C6
:102C300020018F7DF9CF80912001877FF5CFCF9341
:102C4000DF93282F30E0F901E759FC4F8491F90117
:102C5000EE53FD4FD491F901EE5DFC4FC491CC23AE
:102C6000A1F081110E94B815EC2FF0E0EE0FFF1FCC
:102C7000E855FD4FA591B491EC91ED2381E090E0F2
:102C800009F480E0DF91CF91089580E090E0FACFE1
:102C90001F93CF93DF93282F30E0F901E759FC4FC2
:102CA0008491F901EE53FD4FD491F901EE5DFC4F93
:102CB000C491CC23A9F0162F81110E94B815EC2FD6
:102CC000F0E0EE0FFF1FE85FFC4FA591B4918FB7C6
:102CD000F894EC91111108C0D095DE23DC938FBFDE
:102CE000DF91CF911F910895DE2BF8CF90911502BF
:102CF00089130DC0E8E6F3E0E4919FEF909315028D
:102D0000E230E1F038F4EE2381F0E13089F060E068
:102D10000C944816E43049F110F1E530C1F7909178
:102D200073009D7F90937300F2CF10926E00EFCFEF
:102D300090916F009D7F90936F00E9CF909170000C
:102D40009D7F9093700091E09093B0009091B100BE
:102D5000987F94609093B1001092B300D8CF909177
:102D600071009D7F90937100D2CF909172009D7FF2
:102D700090937200CCCFCF93DF9390E0FC01EE53A1
:102D8000FD4F24918E5D9C4FFC0184918823C9F0F6
:102D900090E0880F991FFC01E257FD4FA591B49177
:102DA000FC01E85FFC4FC591D49161110DC09FB744
:102DB000F8948C91209582238C93888128232883F2
:102DC0009FBFDF91CF910895623051F49FB7F8947F
:102DD0003C91822F809583238C93E8812E2BEFCF1B
:102DE0008FB7F894EC912E2B2C938FBFEACFEF92F4
:102DF000FF920F931F93CF93DF93EC011C8281EB23
:102E000093E09A878987688349832A830B838E019D
:102E10007E0184E0E80EF11C61E0F80181918F01F0
:102E20000E94BB160E151F05B9F71F8A1E8A1D8A40
:102E300081E0888F1E821D8218861F8286E192E0C3
:102E40009A8B898B80912602909127029C8B8B8B89
:102E5000DF91CF911F910F91FF90EF900895CF9345
:102E6000DF93EC0161E08BE00E94BB16209731F408
:102E700060E08BE0DF91CF910C944816CF3FD105F5
:102E800011F461E0F6CFE4E7F3E0E491E150E231E0
:102E900008F0B2C0F0E08827EF5AF84E8F4F0C943C
:102EA000FA3963176A176F1779178317FC178D178D
:102EB00095179D17A717B117BB17CA17D417FC177B
:102EC000DE17E817F21784B5806884BDC7BDDF91AF
:102ED000CF91089584B5806284BDC8BDF8CF80913C
:102EE0008000806880938000D0938900C093880020
:102EF000EECF80918000806280938000D0938B0021
:102F0000C0938A00E4CF8091800088608093800025
:102F1000D0938D00C0938C00DACF8091B000806890
:102F20008093B000C093B300D2CF8091B000806294
:102F30008093B000C093B400CACF809190008068A5
:102F400080939000D0939900C0939800C0CF809157
:102F50009000806280939000D0939B00C0939A0071
:102F6000B6CF80919000886080939000D0939D00B0
:102F7000C0939C00ACCF8091A00080688093A0009B
:102F80008091A0008F7B8093A000D093A900C09374
:102F9000A8009DCF8091A00080628093A000D09374
:102FA000AB00C093AA0093CF8091A000886080936B
:102FB000A000D093AD00C093AC0089CF80912001D8
:102FC000806880932001D0932901C09328017FCF8E
:102FD00080912001806280932001D0932B01C093C7
:102FE0002A0175CF80912001886080932001D093C1
:102FF0002D01C0932C016BCFC038D1050CF041CF0F
:1030000037CF4F925F926F927F928F929F92AF9243
:10301000BF92CF92DF92EF92FF920F931F93CF93C5
:103020008C014A015B0180911502823399F08F3F38
:1030300009F47FC0CF911F910F91FF90EF90DF9027
:10304000CF90BF90AF909F908F907F906F905F9048
:103050004F900895E8E6F3E0C491C7FDEBCF61E03F
:1030600082E30E94BB16CC2319F0C23009F08FC155
:103070002801712C612C60E472E48FE090E0A301E0
:1030800098010E94DB3969017A0181E0C81AD108F0
:10309000E108F108C23009F020C18FEFC816D10451
:1030A000E104F10409F00CF470C160E970ED83E013
:1030B00090E0A30198010E94DB3969017A0181E067
:1030C000C81AD108E108F1088FEFC816D104E1044D
:1030D000F10411F00CF019C283E09091B100987FD7
:1030E000892B8093B1002FEF3FEFA9018114910448
:1030F000A104B10409F06CC1C23009F4F6C10CF0AE
:10310000DEC1CC2309F4E2C1C13009F093CFD092E3
:103110008900C09288002093410430934204409378
:1031200043045093440480916F00826080936F0049
:1031300081CF82E380931502E8E6F3E0C4918C2FFF
:10314000CF3F09F477CFC23009F468C060F4CC23D4
:1031500079F1C13009F444C087FD6CCF61E082E3AE
:103160000E94BB1682CFC43009F499C008F478C01D
:10317000C53091F710922001109221018091210118
:1031800088608093210180912101816080932101D9
:10319000E4E5F3E0E491F0E0EE0FFF1FE85FFC4FA1
:1031A00085919491E4EFF2E0E491E093290457CF04
:1031B00014BC15BC84B5826084BD85B5816085BDB5
:1031C000E4E5F3E0E491F0E0EE0FFF1FE85FFC4F71
:1031D00085919491E4EFF2E0E491E09330043FCFE5
:1031E000109280001092810080918100886080930D
:1031F000810080918100816080938100E4E5F3E0AB
:10320000E491F0E0EE0FFF1FE85FFC4F8591949191
:10321000E4EFF2E0E491E0932F0421CF1092B000AC
:103220001092B1008091B00082608093B0008091D4
:10323000B10081608093B100E4E5F3E0E491F0E057
:10324000EE0FFF1FE85FFC4F8591949190932E0441
:1032500080932D04E4EFF2E0E491E0932C04FFCEA0
:10326000109290001092910080919100886080935C
:10327000910080919100816080939100E4E5F3E0FA
:10328000E491F0E0EE0FFF1FE85FFC4F8591949111
:10329000E4EFF2E0E491E0932B04C3E0E0CE10927F
:1032A000A0001092A1008091A10088608093A100ED
:1032B0008091A10081608093A100E4E5F3E0E491B6
:1032C000F0E0EE0FFF1FE85FFC4F85919491E4EF73
:1032D000F2E0E491E0932A04C2CE8FEFC816D10445
:1032E000E104F10409F00CF44DC068E478EE81E0EB
:1032F00090E0A30198010E94DB3969017A0181E025
:10330000C81AD108E108F108CC2309F417C18FEFDE
:10331000C816D104E104F10409F00CF40DC162E116
:103320007AE780E090E0A30192010E94DB39690115
:103330007A0181E0C81AD108E108F10886E0C111DC
:10334000CCCE94E085B5887F892B85BD2FEF3FEFEC
:10335000A90181149104A104B10409F4B7C0C0E02B
:1033600037C064E274EF80E090E0A30192010E9414
:10337000DB3969017A0181E0C81AD108E108F10856
:1033800085E0ABCE92E0CC23E9F282E0A6CE9801B4
:1033900050E040E060E072E18AE790E00E94DB39B3
:1033A00069017A0181E0C81AD108E108F108C13049
:1033B000E9F480918100887F8160809381002FEF04
:1033C0003FEFA90181149104A104B10409F49FCE37
:1033D000D801AA0FBB1FA50194010E94713828EEE5
:1033E00033E040E050E00E94B93986CEC33001F5A9
:1033F00080919100887F8160809391002FEF3FEF53
:10340000A90181149104A104B10411F7D09299008B
:10341000C09298002093390430933A0440933B04BF
:1034200050933C048091710082608093710002CEC1
:10343000C43009F58091A100887F81608093A1004C
:103440002FEF3FEFA90181149104A104B10409F009
:10345000BFCFD092A900C092A8002093350430932A
:103460003604409337045093380480917200826090
:1034700080937200DFCDC53009F035CE80912101F7
:10348000887F8160809321012FEF3FEFA901811494
:103490009104A104B10409F09BCFD0922901C092FC
:1034A0002801209331043093320440933304509325
:1034B000340480917300826080937300BBCDC4306C
:1034C00041F20CF4A3CFC53041F3B4CDC7BC209377
:1034D0004504309346044093470450934804809138
:1034E0006E00826080936E00A5CDC092B3002093E1
:1034F0003D0430933E0440933F0450934004809138
:10350000700082608093700095CD68E478EE81E071
:1035100090E0A30198010E94DB3969017A0181E002
:10352000C81AD108E108F1088FEFC816D104E104E8
:10353000F10411F00CF015CF84E0CFCD93E08FEFC4
:10354000C816D104E104F10411F00CF0E8CEFACE73
:103550008230910538F0880F991F880F991F0597C1
:103560000197F1F708953FB7F89480914403909143
:103570004503A0914603B091470326B5A89B05C01B
:103580002F3F19F00196A11DB11D3FBFBA2FA92FE2
:10359000982F8827BC01CD01620F711D811D911DDF
:1035A00042E0660F771F881F991F4A95D1F708954B
:1035B0008F929F92AF92BF92CF92DF92EF92FF9243
:1035C0004B015C010E94B31A6B017C010E94B31A8B
:1035D0006C197D098E099F09683E7340810591052C
:1035E000A8F321E0821A9108A108B10888EEC80E5C
:1035F00083E0D81EE11CF11C81149104A104B104E4
:1036000029F7FF90EF90DF90CF90BF90AF909F9001
:103610008F9008959091F8038917D8F490E0FC01F9
:10362000E852FC4F208120932704FC01E851FC4F15
:10363000208120934203FC01E052FC4F2081209323
:10364000490480519C4FFC0180818093280481E0D3
:10365000089580E008959091D703891708F05DC020
:1036600090914803981302C081E008958093480325
:1036700090E09C01220F331FF901E75BFC4F408172
:1036800051815093410340934003FC01E153FC4FAF
:1036900040814093C603FC01E953FC4F5081509395
:1036A000C503403A08F3FC01E354FC4F40814093CA
:1036B000BC0382559C4FFC0180818093AD03F901CE
:1036C000E756FC4F808191819093BB038093BA03AE
:1036D000F901E757FC4F808191819093AC0380936F
:1036E000AB03F901E758FC4F808191819093AA03C5
:1036F0008093A903F901E759FC4F80819181909350
:10370000B9038093B803275A3C4FF9018081918116
:103710009093B7038093B603A7CF80E0089580917C
:10372000C603803A50F0E091BA03F091BB03808168
:103730009091BC03892B8083089561E00C94BB16A3
:103740008091C603803A58F0E091BA03F091BB0330
:1037500090818091BC03809589238083089560E0E7
:103760000C94BB168091C503803A50F0E091AB03F6
:10377000F091AC0380819091AD03892B80830895F3
:1037800061E00C94BB168091C503803A58F0E0913B
:10379000AB03F091AC0390818091AD0380958923B8
:1037A0008083089560E00C94BB168091C603803A34
:1037B00060F0E091B603F091B70390818091BC0373
:1037C000982381E021F480E008950E941F16089557
:1037D0000F931F93CF93DF93082F18E007FF2CC0A0
:1037E0000E94A01B0E94C31BC0914003D0914103C3
:1037F000CE010E94A81A0E94B21B000F115071F74F
:103800000E94A01B0E94C31BCE010E94A81A0E9406
:10381000D51B182F0E94B21BCE010E94A81A0E942D
:103820008F1B81E090E0112311F090E080E0DF91A8
:10383000CF911F910F9108950E948F1BD3CFBF92FC
:10384000CF92DF92EF92FF920F931F93CF93DF936C
:10385000C62F7A01B22EC32E0E942B1B882309F497
:1038600080C00E948F1B80914003909141030E9471
:10387000A81A0E94B21B8C2F880F0E94E81BEC0133
:10388000019709F04DC0870181E090E0CB2DDC2D40
:10389000209709F441C0019709F060C0F8018191B7
:1038A0008F019FEF980F9E3F80F18F3F59F50E9447
:1038B000A01B88E0D82E0E94C31BE0904003F0902C
:1038C0004103C7010E94A81A0E94B21BDA94D110CA
:1038D000F2CF0E94A01B0E94C31BC7010E94A81A1E
:1038E0000E94D51BD82E0E94B21BC7010E94A81AA5
:1038F0000E948F1B90E080E0D110CACF219781E019
:1039000090E0C6CF0E948F1BD4CF0E94E81B81306D
:10391000910509F0BDCFF2CF019711F4CB2DDC2D2D
:103920000E948F1B0091400310914103C8010E9427
:10393000A81A0E94C31BC8010E94A81A0E94A01BBB
:10394000C8010E94A81ACE01DF91CF911F910F915B
:10395000FF90EF90DF90CF90BF900895D0E0C0E04F
:10396000DFCFD0E0C0E0EFCFCF93DF9300D0CDB773
:10397000DEB70E940A1B882381F0198281E88A83BE
:1039800084E18B8323E030E0AE014F5F5F4F6091B5
:103990002804809127040E941F1C0F900F900F9005
:1039A000DF91CF910895CF93DF931F921F92CDB7F0
:1039B000DEB719828A8322E030E0AE014F5F5F4FAD
:1039C00060912804809127040E941F1C0F900F9083
:1039D000DF91CF910895CF93DF93EC01809149045B
:1039E0008430D9F4A09680914203811102C06C5FAB
:1039F0007F4F862F806B0E94D31C8C2F8F700E946C
:103A0000D31C84E0D595C7958A95E1F7CF708C2FAC
:103A10008061DF91CF910C94D31C833051F72296B3
:103A2000E8CF982FFB01DA018770907F903CE9F195
:103A300030F4903A71F1903B09F443C00895903E00
:103A400071F0903FD1F0903DA1F4232B09F045C0D7
:103A50002BE230E02D933C932AE230E008C0232B88
:103A600049F42EE230E02D933C932DE230E0318397
:103A7000208308952CE230E0F6CF232B39F421E3A4
:103A800030E02D933C9320E330E0F1CF2FE230E0A3
:103A9000F8CF232B39F424E330E02D933C9323E338
:103AA00030E0E5CF22E330E0F8CF232B39F428E2F1
:103AB00030E02D933C9327E230E0D9CF26E230E08E
:103AC000F8CF232B39F425E230E02D933C9324E208
:103AD00030E0CDCF23E230E0F8CF29E230E0BACFBA
:103AE000CF93DF93EC0189859A856817790718F0E1
:103AF000BC016150710978876F83888D882349F0F4
:103B0000188E0E94B31A6B877C878D879E87188AD0
:103B10001F86DF91CF910895EF92FF921F93CF936D
:103B2000DF93DC011496EC91F0E0E25AFD4F108136
:103B3000EC017C01B4E0EB0EF11C612F6170899106
:103B40000E9448161695CE15DF05B9F7DF91CF9183
:103B50001F91FF90EF9008954F925F926F927F9226
:103B60008F929F92AF92BF92DF92EF92FF920F934C
:103B70001F93CF93DF93EC0106E010E0EE24E39473
:103B8000F12CDD24D394888D811187C00E94B31A53
:103B90008F849888B12CA12C4B845C846D847E84A6
:103BA0006419750986099709681579058A059B05C1
:103BB00050F38D819E812F8138854D895E898217D2
:103BC000930759F4452B91F4D88E1F8A0E94B31A9B
:103BD0006B877C878D879E87D6CF452B39F48217DC
:103BE000930770F521E02F8BFE8AED8A2F8912163C
:103BF0004CF529853A858217930768F401969E83D0
:103C00008D838C8190E00196B8010E94A5398C8348
:103C1000CE010E948C1D2D813E818F8198854F8918
:103C20001416CCF4AC01421B530B9A018D899E896A
:103C3000121613061CF42817390780F4019714C0D4
:103C40002FEFD1CF009739F301979E838D838C811D
:103C500090E00596D9CF281B390BE8CF2B893C89FA
:103C60008217930718F401969E8B8D8B29893A89C8
:103C70004D895E8980E094E0899FF0011124E20F74
:103C8000F31F608171816417750710F48F5FF3CFA4
:103C900082819381988B8F8799CFDF91CF911F91EC
:103CA0000F91FF90EF90DF90BF90AF909F908F901B
:103CB0007F906F905F904F900895CF92DF92EF9238
:103CC000FF920F931F93CF93DF93EC0189859A8521
:103CD00001979E838D83D12CC12C86E0E82EF12C98
:103CE0000BE71CE089859A85C816D906C0F48D813A
:103CF0009E81009769F001979E838D838C8190E06F
:103D00000596B7010E94A5398C83CE010E948C1DB7
:103D1000C8010197F1F78FEFC81AD80AE3CF1E82C6
:103D20001D8218861F821E8A1D8A1F8ADF91CF91ED
:103D30001F910F91FF90EF90DF90CF9008958091A9
:103D4000380381110BC01092350310923403109286
:103D500037031092360381E08093380384E393E0C5
:103D6000089580912C0381110BC0109229031092A9
:103D7000280310922B0310922A0381E080932C03D6
:103D800088E293E00895DB01109749F0ED91FC91F2
:103D900011970190F081E02DBC01CD01199490E0C4
:103DA00080E008950F931F93CF93DF931F92CDB7B9
:103DB000DEB78C01FC01828181110BC08081918171
:103DC0001982BE016F5F7F4F0E9415148981F8012F
:103DD0008283F80182810F90DF91CF911F910F9123
:103DE00008950F931F93CF93DF931F92CDB7DEB744
:103DF0008C01C8010E94D21E8D3021F044F48950FC
:103E0000823048F4F801838182831382F2CF8032BA
:103E1000C9F38F3231F00F90DF91CF911F910F9145
:103E20000895F801838181110BC0808191811982ED
:103E3000BE016F5F7F4F0E9415148981F801838353
:103E4000F80183818A3289F08F3229F7F801838162
:103E500082831382C8010E94D21E8823E1F2C80126
:103E60000E94D21E8A3091F7C4CF1382F801838159
:103E700082831382C8010E94D21E882361F2C80186
:103E80000E94D21E8A3291F7F801838181110BC002
:103E9000808191811982BE016F5F7F4F0E9415144E
:103EA0008981F8018383F80183818F32F9F61382C7
:103EB00012829FCF1F93CF93DF93EC01162F0E94A6
:103EC000F11ECE010E94D21E811308C08B818A830D
:103ED0001B8281E0DF91CF911F91089580E0FACF9E
:103EE000CF93DF93EC0188819981009711F00E94B4
:103EF000B23A198218821D821C821B821A82DF91BB
:103F0000CF910895FC0180819181009711F00C946C
:103F1000B23A08950F931F93CF93DF938B01FC0167
:103F2000C281D381209759F06A817B8101151105E7
:103F300019F06115710549F46017710759F4CE0144
:103F4000DF91CF911F910F910895C8010E94253CE8
:103F5000892BA9F30990D881C02DE4CF0F931F932B
:103F6000CF93DF93CDB7DEB7C158D1090FB6F89420
:103F7000DEBF0FBECDBF8B0120E42983AB01BC01A6
:103F8000CE0102960E941C3C98012F5F3F4FAE016C
:103F90004F5F5F4F60912804809127040E941F1C8F
:103FA000CF57DF4F0FB6F894DEBF0FBECDBFDF9106
:103FB000CF911F910F9108958F929F92AF92BF92D0
:103FC000CF92DF92EF92FF920F931F93CF93DF93E5
:103FD000CDB7DEB760970FB6F894DEBF0FBECDBF8A
:103FE00080914904813061F034E0E32EF12C44E00B
:103FF000C42ED12C843051F098E0E92EF12C03C06E
:1040000024E0E22EF12C88E0C82ED12CCE010196BE
:104010004C0180E1F40111928A95E9F710E000E08B
:10402000B80190E080E00E94EB1CB12CA12C60E173
:1040300070E0C4010E94AE1FFFEFAF1ABF0ACA149E
:10404000DB04A9F70F5F1F4F0E151F0549F7609698
:104050000FB6F894DEBF0FBECDBFDF91CF911F9199
:104060000F91FF90EF90DF90CF90BF90AF909F9017
:104070008F9008952F923F924F925F926F927F920E
:104080008F929F92AF92BF92CF92DF92EF92FF9268
:104090000F931F93CF93DF93CDB7DEB760970FB623
:1040A000F894DEBF0FBECDBF6B014A0179010E94BB
:1040B0000A1B882309F4DAC0F70101900020E9F710
:1040C00031975F01AE18BF08B401C6010E94EB1C16
:1040D000C501012B09F04AC043E0880F991F4A959A
:1040E000E1F78C0D9D1D8138910554F000E810E03A
:1040F0000C191D09580133E0B594A7943A95E1F7DE
:10410000AE0CBF1C15C0F70161917F01F8E06F9FF5
:10411000B001112461547C4D48E050E0CE0101967D
:104120000E94BE3468E070E0CE0101960E94AE1F8E
:10413000EA14FB0441F790E080E060960FB6F89433
:10414000DEBF0FBECDBFDF91CF911F910F91FF90CA
:10415000EF90DF90CF90BF90AF909F908F907F9027
:104160006F905F904F903F902F90089524E0880FBC
:10417000991F2A95E1F78C0D9D1D8138910554F00A
:1041800000E810E00C191D09580184E0B594A794CB
:104190008A95E1F787010A0D1B1D3401EFEF6E1AB6
:1041A0007E0A2401F2E04F0E511C140183E0280E18
:1041B000311CE016F10609F4BECFF701A1907F0192
:1041C000F0E4AF9E50011124C50181559C4F5C0164
:1041D000B401C6010E94EB1C40E150E0B501CE01E4
:1041E00001960E94BE3460E170E0CE0101960E940B
:1041F000AE1FB301C6010E94EB1CB501605F7F4F8B
:1042000040E150E0CE0101960E94BE3460E170E0D2
:10421000CE0101960E94AE1FB201C6010E94EB1CA6
:10422000B501605E7F4F40E150E0CE0101960E94F3
:10423000BE3460E170E0CE0101960E94AE1FB10174
:10424000C6010E94EB1CB501605D7F4F40E150E06C
:10425000CE0101960E94BE3460E170E0CE0101966D
:104260000E94AE1F90E1C90ED11CA3CF8FEF9FEF2C
:1042700064CF0F931F93AB0110E000E09C0170E04E
:1042800060E080E00E943A201F910F9108950F9303
:104290001F93CF93DF93EC01662331F081E00E94FE
:1042A0000A1B81110E94DC1F01E010E09E014FEF0C
:1042B0005FEF70E060E081E00E943A20DF91CF91F3
:1042C0001F910F91089561E08AEB92E00E944721CF
:1042D00080E00E940A1B81110E94DC1F10920E04D4
:1042E00090E080E00E942F1760E084E30E9448166F
:1042F00060E085E30E94481660E084E20E94481670
:1043000060E082E20E94481660E080E30E94481666
:1043100060E081E20E94481660E080E20E94481658
:1043200060E08EE20E94481660E081E30E94481639
:1043300060E08CE20E94481660E085E20E94481628
:1043400060E087E20E94481660E086E20E9448161C
:1043500060E089E20E94481660E088E20E94481608
:1043600060E08BE20E94481660E08FE20E944816EF
:1043700060E083E20E94481660E08DE20E944816E9
:1043800060E08EE10E94481660E08AE20E944816D2
:104390001092160410921704109218041092190427
:1043A00010921A0410921B0410921C0410921D0407
:1043B00010922204109223041092240410922504D7
:1043C00010921E0410921F041092200410922104D7
:1043D00082E495E00E945D1E89E295E00E945D1EE8
:1043E00080E195E00E945D1E87EF94E00C945D1ED5
:1043F0000F931F93CF93DF93EC01888199810097EE
:1044000059F02A813B812617370730F081E0DF9190
:10441000CF911F910F9108958B016F5F7F4F0E9485
:104420003B3B009759F0998388831B830A832C8137
:104430003D81232B59F7FC011082E8CF80E0E7CFC4
:10444000EF92FF920F931F93CF93DF93EC01FB0149
:10445000E080F180E114F10411F10481158101156E
:104460001105A9F08C819D81080F191FB801CE019B
:104470000E94F821882399F0288139818C819D81BF
:10448000B701820F931F0E942E3C1D830C83CE0127
:10449000DF91CF911F910F91FF90EF900895CE0182
:1044A0000E94701FF4CFEF92FF920F931F93CF9350
:1044B000DF93EC017B018A01BA010E94F82181118E
:1044C0000BC0CE010E94701FCE01DF91CF911F91D2
:1044D0000F91FF90EF9008951D830C83B7018881A1
:1044E00099810E942E3CF0CFFB0101900020E9F75A
:1044F0003197AF01461B570B0C9453220F931F9318
:10450000CF93DF93CDB7DEB762970FB6F894DEBFD7
:104510000FBECDBF8C01CB01F80111821082138236
:104520001282158214824AE0BE016F5F7F4F0E94A3
:10453000C734BE016F5F7F4FC8010E94742262962C
:104540000FB6F894DEBF0FBECDBFDF91CF911F91A4
:104550000F910895FB01DC0111961C921E92139697
:104560001C921E92129715961C921E9214978617F3
:10457000970749F0608171816115710521F04481CF
:1045800055810C9453220895FC01118210821382EC
:104590001282158214826115710551F0FB010190A0
:1045A0000020E9F73197AF01461B570B0C945322BB
:1045B0000895CF92DF92EF92FF920F931F93CF93C4
:1045C000DF938C017B01DC011596CD91DC916E01AE
:1045D000C617D70708F46B01C60106960E94163A63
:1045E000FC0190E080E03097B9F0D382C282D8011C
:1045F00013968D919C911497918380831496FC93CC
:10460000EE931397CC0FDD1F1696DC93CE93159780
:10461000CF010696F582E482DF91CF911F910F9131
:10462000FF90EF90DF90CF900895DC011396ED910D
:10463000FC91309789F0448155819B01240F351FEF
:10464000A281B381A217B30738F0CF010696840F79
:10465000951F3583248308950C94D922FF920F93DC
:104660001F93CF93DF93EC01F62E88819981DC01B3
:104670001396ED91FC91309701F1448155819A0197
:104680002F5F3F4F6281738162177307B0F0DF01C4
:104690001696A40FB51F35832483FC928C819D81CF
:1046A000892BE1F08C819D8101969D838C83DF9124
:1046B000CF911F910F91FF9008956C817D816F5F65
:1046C0007F4F0E94D9228C016A817B81611571051F
:1046D00041F4892B61F41B830A83E4CFBB83AA8353
:1046E000E1CF0097C1F34C815D810E941C3CEC81BD
:1046F000FD81E00FF11FF082EECFCF92DF92FF92AB
:104700000F931F93CF93DF9300D000D0CDB7DEB7C8
:104710008C01FC01868197819A8389831C821B828C
:104720001E821D826801F2E0CF0ED11CC6010E94DC
:10473000F11EC6010E94D21EF82E87E2F81619F06B
:10474000E2E2FE122CC0F801858184831582C60145
:104750000E94D21E882309F446C0F80195819483F3
:104760001582F81609F43FC08C3589F4C6010E9401
:10477000D21EE0EBF2E09081992319F089130DC06D
:104780008181882381F1F801958194831582682FB6
:10479000CE0101960E942E23DACF3296ECCFFFE2B3
:1047A000FF15B4F589E38F1534F4EEE5EF158CF4BD
:1047B000FAE7FF158CF0F8018581848315826F2D4F
:1047C000CE0101960E942E23C6010E94D21EF82E11
:1047D000E6CF80E48F15E4F4EAE5EF1564F783EDA6
:1047E0008F0D823040F360E0CE0101960E942E23AF
:1047F0008B819C8126960FB6F894DEBF0FBECDBF8D
:10480000DF91CF911F910F91FF90DF90CF9008958E
:10481000FBE2FF12E4CFCFCFAF92BF92CF92DF92F5
:10482000EF92FF920F931F93CF93DF9300D000D0AE
:10483000CDB7DEB77C01DC0118968C91811104C0E4
:104840000E949F1E8C0188C08150F7018087C08024
:10485000D180B60184E090E00E94C31E8C010097D5
:1048600009F48CC0DC011196DC92CE9213961C9256
:104870001E9212976701B2E0CB0ED11C6BE7C60106
:104880000E945A1F8823E1F26DE7C6010E945A1F59
:1048900081115EC0C7010E947D235C01892B81F2DA
:1048A0006AE3C6010E945A1F882351F21A821982B4
:1048B000BE016F5F7F4FC7010E94C224882309F4A5
:1048C000BFCFB501C8010E948A1F009759F5F801B2
:1048D000608171818AE090E00E94C31E009741F0E0
:1048E000DC0111961C921E9215961C921E92149732
:1048F000D8011296ED91FC91309729F4F801938339
:10490000828308C0F9012081318121153105D1F759
:1049100091838083009709F493CFDC011396BC92B6
:10492000AE92129726E0FE013196DC0114960190BA
:104930000D922A95E1F76DE7C6010E945A1F811179
:1049400007C06CE2C6010E945A1F8111A3CF78CF25
:10495000F70180858F5F8087C80126960FB6F8948F
:10496000DEBF0FBECDBFDF91CF911F910F91FF90A2
:10497000EF90DF90CF90BF90AF9008950E949F1E60
:104980008C0178CF8F929F92AF92BF92CF92DF929D
:10499000EF92FF920F931F93CF93DF9300D000D03D
:1049A000CDB7DEB77C016B015C0182E0A80EB11CC3
:1049B000C5010E94F11EC5010E94D21E8B35F9F07F
:1049C0008B3709F4ADC0C5010E94D21E11E08732B9
:1049D00019F0823209F010E0C7010E947D23009790
:1049E00009F480C021E030E0112309F4A3C022E0E3
:1049F00030E0F601318320839383828374C0F70112
:104A00008085811104C00E94B11E8C0166C0815056
:104A1000808780809180B40184E090E00E94C31E72
:104A20008C01009709F48CC0FC0191828082138272
:104A300012826BE5C5010E945A1F882321F36DE5A0
:104A4000C5010E945A1F811144C01A821982BE01F9
:104A50006F5F7F4FC7010E94C2248823A1F2F80133
:104A60006081718188E090E00E94C31EDC01892B87
:104A700039F011961C921E9213961C921E92129758
:104A8000F801228133812115310521F4B383A283FA
:104A900008C09C01F901808191810097D1F7B18311
:104AA000A083109709F4AFCF86E0FE0131961296ED
:104AB00001900D928A95E1F76DE5C5010E945A1F9C
:104AC000811107C06CE2C5010E945A1F8111BDCF40
:104AD0009ACFF70180858F5F8087F801808191816F
:104AE000892BA9F410E0812F26960FB6F894DEBF2B
:104AF0000FBECDBFDF91CF911F910F91FF90EF902F
:104B0000DF90CF90BF90AF909F908F90089586E0F8
:104B100090E0F601918380831383028311E0E3CF59
:104B2000C7010E940C24FC0120813181232BD1F28A
:104B300027E030E0F6013183208393838283EECF38
:104B40000E94B11E8C0175CF1F920F920FB60F926B
:104B500011240BB60F922F933F934F935F936F9354
:104B60007F938F939F93AF93BF93EF93FF93809126
:104B70003D0490913E04A0913F04B0914004892BE4
:104B80008A2B8B2BE1F190912C04E0912D04F09174
:104B90002E0480818927808380913D0490913E047A
:104BA000A0913F04B0914004181619061A061B067E
:104BB0009CF480913D0490913E04A0913F04B091FB
:104BC00040040197A109B10980933D0490933E04EC
:104BD000A0933F04B0934004FF91EF91BF91AF9138
:104BE0009F918F917F916F915F914F913F912F9105
:104BF0000F900BBE0F900FBE0F901F9018958091D5
:104C000015020E947616E8CF1F920F920FB60F92F0
:104C100011240BB60F922F933F934F935F936F9393
:104C20007F938F939F93AF93BF93EF93FF938EE404
:104C300094E00E94F814FF91EF91BF91AF919F9182
:104C40008F917F916F915F914F913F912F910F9035
:104C50000BBE0F900FBE0F901F9018951F920F92D2
:104C60000FB60F9211240BB60F922F938F939F9331
:104C7000EF93FF93E0915E04F0915F048081E091F7
:104C80006404F091650482FD1DC0908180916704E9
:104C90008F5F8F7320916804821741F0E091670461
:104CA000F0E0E25BFB4F958F80936704FF91EF91FB
:104CB0009F918F912F910F900BBE0F900FBE0F9071
:104CC0001F9018958081F2CF1F920F920FB60F920E
:104CD00011242F933F938F939F93AF93BF93809112
:104CE0004A0490914B04A0914C04B0914D04309132
:104CF000430323E0230F2D3758F50196A11DB11D65
:104D00002093430380934A0490934B04A0934C0454
:104D1000B0934D048091440390914503A0914603C4
:104D2000B09147030196A11DB11D80934403909358
:104D30004503A0934603B0934703BF91AF919F9162
:104D40008F913F912F910F900FBE0F901F9018954C
:104D500026E8230F0296A11DB11DD2CF0F93EEE4DA
:104D6000F4E01382128288EE93E0A0E0B0E0848346
:104D70009583A683B7838EE992E09183808385EC47
:104D800090E09587848784EC90E09787868780EC15
:104D900090E0918B808B81EC90E0938B828B82EC06
:104DA00090E0958B848B86EC90E0978B868B118EB0
:104DB000128E138E148E0FE32EE341E460E482E43E
:104DC00095E00E94F71603E422E445E464E489E2F6
:104DD00095E00E94F7160BE32AE34DE36CE380E1D4
:104DE00095E00E94F71607E326E349E368E387EFBF
:104DF00094E00E94F7166AEB72E081EF94E00E9463
:104E0000C4226AEB72E08BEE94E00F910C94C42202
:104E1000CF93DF93CDB7DEB7C456D1090FB6F89460
:104E2000DEBF0FBECDBF789484B5826084BD84B5EB
:104E3000816084BD85B5826085BD85B5816085BD95
:104E400080916E00816080936E001092810080914D
:104E500081008260809381008091810081608093D5
:104E60008100809180008160809380008091B100FA
:104E700084608093B1008091B00081608093B00025
:104E80008091910082608093910080919100816077
:104E90008093910080919000816080939000809138
:104EA000A10082608093A1008091A1008160809325
:104EB000A1008091A00081608093A00080912101D9
:104EC0008260809321018091210181608093210182
:104ED0008091200181608093200180917A0084601C
:104EE00080937A0080917A00826080937A0080912A
:104EF0007A00816080937A0080917A008068809344
:104F00007A001092C1000E945B1461E08BE00E9465
:104F1000BB1661E084E30E94BB1661E085E30E945A
:104F2000BB1661E084E20E94BB1661E082E20E944F
:104F3000BB1661E080E30E94BB1661E081E20E9443
:104F4000BB1661E080E20E94BB1661E08EE20E9427
:104F5000BB1661E081E30E94BB1661E08CE20E9417
:104F6000BB1661E085E20E94BB1661E087E20E9409
:104F7000BB1661E086E20E94BB1661E089E20E94F6
:104F8000BB1661E088E20E94BB1661E08BE20E94E2
:104F9000BB1661E08FE20E94BB1661E083E20E94D3
:104FA000BB1661E08DE20E94BB1661E08EE10E94BB
:104FB000BB1661E08AE20E94BB1662E089E00E94B3
:104FC000BB1662E08FE10E94BB1682E08093D7039C
:104FD00080911202909113029093D0038093CF039B
:104FE00080911002909111029093C8038093C7039F
:104FF0008FEC93E0A5969FAF8EAFA597E7ECF3E01B
:10500000A396FFAFEEAFA397E9E4EE2EE3E0FE2E0A
:1050100088E092E0A1969FAF8EAFA197EDEBF3E011
:105020006F96FFAFEEAF6F97FEEA8F2EF3E09F2EE5
:1050300010E000E066246394712CB0E42B2EB2E4FF
:105040003B2EBFE04B2E512CA596EEADFFADA597A4
:10505000D190A596FFAFEEAFA597D092C603A396C9
:10506000EEADFFADA3973191A396FFAFEEAFA3973F
:105070006D963FAF6D973093C5038FE98D1508F49A
:1050800041C160E08D2D0E94BB1660E06D968FAD32
:105090006D970E94BB1660E08D2D0E94481660E05F
:1050A0006D968FAD6D970E944816A196EEADFFAD3F
:1050B000A1972191319141915191A196FFAFEEAF0E
:1050C000A1972115F5E33F07FCE04F0751050CF4CC
:1050D0009DC1F70171826082F2E0EF0EF11C6F96C4
:1050E0008EAD9FAD6F9701966F969FAF8EAF6F9706
:1050F0009FEF891A990A0E5F1F4F0430110509F0BE
:10510000A3CF81E08093480380E00E942B1B86E1BF
:10511000E0E3F2E0DE01929601900D928A95E1F7CC
:1051200088E1E6E4F2E0DE01119601900D928A95A5
:10513000E1F782E08093F8038091040290910502E8
:105140009093F1038093F00380910002909101020B
:105150009093E9038093E803809102029091030207
:105160009093E1038093E0038091060290910702FF
:105170009093D9038093D80330E0C32E32E0D32E2E
:1051800049EFE42E43E0F42E10E057EAA52E60EA42
:10519000962E70EC872E812F0E940A1B8091490465
:1051A00028E130E0AE014F5F5F4F813029F026E10A
:1051B00030E0AE014E5D5F4F60912804809127047E
:1051C0000E941F1CF70181917F01882369F018AEAE
:1051D000A9AE22E030E0AE01485C5F4F6091280448
:1051E000809127040E941F1CF60181916F01882382
:1051F000C9F018AE99AEB09028040091270422E0BF
:1052000030E0AE01485C5F4F6B2D802F0E941F1C69
:1052100089AE22E030E0AE01485C5F4F6B2D802FFD
:105220000E941F1C113009F00FC180E00E94B41CC5
:1052300081E00E94B41C0E946321412C512C22E881
:10524000622E23E4722E89E00E941F16892B09F03A
:10525000FDC0F1E0F09326048EE494E00E94E21495
:10526000892B11F40C944C3488E992E09BA38AA317
:105270001EA21DA2E0E0F1E0F8A7EFA382E290E019
:105280008C0F9D1F9A8389838EE494E09C838B838B
:105290001D821E82E2E2F0E0EC0FFD1FF887EF8333
:1052A000FAE0F987CE0101960E940C244C01FC0122
:1052B00080819181892B09F0D0C044E150E06BEBF3
:1052C00072E08EE494E00E94841442E050E060EDCD
:1052D00072E08EE494E00E94841488E992E09BA33B
:1052E0008AA3EDA1FEA1309711F40C944C34828175
:1052F000938198A78FA300811181CF010E94B23AB8
:10530000F801F1CF8D2D8770530101C0AA0C8A9549
:10531000EAF76F96EEADFFAD6F97A082A092BC0347
:1053200030E020E048EB53E06AEB73E08D2D0E9403
:10533000111D21E030E046EB53E06AEB73E08D2D68
:105340000E94111D6D968FAD6D978770630101C02E
:10535000CC0C8A95EAF7F401C082C092AD0330E02C
:1053600020E049EA53E06BEA73E06D968FAD6D97EC
:105370000E94111DE091BA03F091BB038081A094BB
:105380008A218083E091AB03F091AC038081C094CB
:105390008C218083E091B803F091B9038081A82229
:1053A000A082E091A903F091AA038081C822C08263
:1053B0008091BA039091BB03F801E756FC4F9183AB
:1053C00080838091AB039091AC03F801E757FC4FC9
:1053D000918380838091A9039091AA03F801E758F3
:1053E000FC4F918380838091B8039091B903F801B9
:1053F000E759FC4F918380838091B6039091B70366
:10540000F801E75AFC4F918380834FCE82E090E011
:105410002038FAE13F07F6E04F0751054CF4203AF7
:1054200096E8390791E04907510534F08AE090E0A9
:10543000F7019183808350CEC201B1010E94DB3914
:10544000F7013183208348CE11E0A5CE8FE10E9481
:105450001F16892B09F4FDCEFFCE63ED72E0C40167
:105460000E948A1FFC01892B09F4AEC084819581BA
:105470008330910568F5019708F4A6C00680F7818E
:10548000E02D309709F4A0C0808101E010E084375E
:1054900079F18B3209F492C08D3209F090C03196C7
:1054A00021E010E000E0619180ED860F8A3008F085
:1054B00088C09AE0F92EF09EC001F19E900D112453
:1054C000062F660F110B00531109080F191FEBCFA0
:1054D0008530910558F0059709F46AC06681778197
:1054E000808591850E946A398B0102C006811781EF
:1054F00065ED72E0C4010E948A1FFC01892B09F44A
:1055000054C1848195818330910508F060C0019772
:1055100008F44BC10680F781E02D309709F445C1AE
:1055200080818B3209F4E0C08D3209F0DEC0319603
:10553000332433948081C12CD12C50E8E52E5FE3D5
:10554000F52E843709F456C08F7DC12CD12C40EC48
:10555000E42E4FE7F42E8E3409F44CC0893409F45C
:105560002FC1A12C20E030E0A901DF01F19080EDF6
:105570008F0D8A3008F0BDC02C3C8CEC38078CE0D5
:10558000480751050CF0B3C0AAE0B0E00E947138A2
:105590002F2DFF0C330B205331096901330FEE0817
:1055A000FF08A7019601260F371F481F591FDDCF9F
:1055B000068117811195019511099ACF319620E046
:1055C00070CF2111F7CF94CF10E000E091CF85305C
:1055D000910540F0059709F47AC0C680D780E08431
:1055E000F18408C066817781808591850E94523759
:1055F0006B017C0167ED72E0C4010E948A1F5C01AF
:10560000009709F435C1FC0184809580F1E08F1684
:10561000910469F4FC01668177816115710539F0A7
:1056200089ED92E00E94253C892B09F421C1F1E02B
:105630008F1A910832E08316910408F019C1F50120
:10564000A680B780053F110509F481C50CF071C132
:105650000C3E110509F42AC40CF038C1083E1105AE
:1056600009F453C30CF007C1063E110509F423C227
:10567000073E110509F42CC380912604882391F07C
:1056800082E495E00E945D1E89E295E00E945D1E25
:1056900080E195E00E945D1E87EF94E00E945D1E10
:1056A0001092260488E992E09BA38AA3EDA1FEA1B3
:1056B000309711F40C944C348281938198A78FA376
:1056C00000811181CF010E94B23AF801F1CF6681C9
:1056D0007781808591850E9452376B017C01F7FAB2
:1056E000F094F7F8F09486CF3196312C23CFA39421
:1056F0003CCF9EE2F91224C0FD013196DF01F1900A
:1057000080ED8F0D8A30E0F42C3C8CEC38078CE077
:10571000480751059CF7AAE0B0E00E9471382F2D90
:10572000FF0C330B205331096901330FEE08FF08DA
:10573000A7019601260F371F481F591FAA94DECFD5
:105740008C918F7D6A2DAA0C770BB12CA12C8534FE
:1057500009F04AC011968C9111978D3251F512962D
:10576000E1E0B12CA12CFD9180ED8F0F8A30B8F5CE
:105770008AE0F82EFA9CC001FB9C900D1124AF2EFC
:10578000FF0FBB08F0E3AF1AB108A80EB91EC501A0
:10579000860F971F87973CF3EE2391F0C12CD12CF5
:1057A000E12CF0E8FF2E311025CFC12CD12C760151
:1057B00021CF8B3219F01196E0E0D3CF1296FCCFB7
:1057C000C12CD12CE0E8EE2EFF24FA94311012CF38
:1057D000C12CD12C30E8E32E3FE7F32E0BCFEE2384
:1057E00019F0B194A194B108A60EB71ECA01B9016F
:1057F0000E9454376B017C011A141B04E4F4212C21
:10580000A0FE10C034E0239EF0011124E458FD4FA7
:105810002081318142815381C701B6010E94B33793
:105820006B017C01B594A7942394A114B10441F7B2
:10583000311055CFDFCEB194A194B108212CA11421
:10584000B104B1F3A0FE10C084E0289EF001112441
:10585000EC59FD4F2081318142815381C701B6014E
:105860000E94B3376B017C01B594A7942394E7CFD2
:10587000B12CA12CE7CE0A3E110509F4B7C20CF4F5
:1058800058C220E030E0A901C701B6010E944D379F
:1058900018160CF0FFC220E030E64AEE55E4C701CE
:1058A000B6010E94A03987FFF9C220E030E040E253
:1058B00051E4C701B6010E94F83860932204709346
:1058C00023048093240490932504D6CE003F110531
:1058D00009F4ABC394F40E3E110509F49AC30CF419
:1058E00084C3C701B6010E946A39709312046093A1
:1058F0001104CB010E942F17BFCE023F110509F4FE
:1059000011C40CF4FCC3043F110509F0B5CE80911D
:10591000140490911504019709F0AECEC701B601A9
:105920000E946A396130710509F00FC461E088E2B4
:10593000FDC10C3F110509F493C40CF078C0083F79
:10594000110509F459C4D4F4063F110509F412C431
:10595000073F110509F090CE809114049091150431
:10596000019709F089CEC701B6010E946A396130FA
:10597000710509F0C5C161E08CE2D8C180911404C1
:10598000909115040A3F110509F456C40CF445C45E
:10599000019709F071CEC701B6010E946A39672BE1
:1059A00009F46ACEA114B10409F455C4B5018BEE13
:1059B00094E00E94742280911402882309F45CCE42
:1059C0006BEE72E0CE01CE960E94C4226BEE74E0C4
:1059D000CE0101960E94AA22BE016F5F7F4FCE01C9
:1059E000C8960E94AA22BE01625C7F4FCE01C89673
:1059F0000E942022BC01CE018C5B9F4F0E94AA22F4
:105A0000CE01C8960E94821FCE0101960E94821F7D
:105A1000CE01CE960E94821F60E026968EAD9FAD8D
:105A200026970E944721CE018C5B9F4F5EC50115D2
:105A3000F1E01F0709F4A2C6D4F4809114049091F8
:105A400015040E3F110509F419C60CF491C5019710
:105A500009F012CEC701B6010E946A3961157105BD
:105A600009F40ACE7093FC036093FB0305CE08375C
:105A700083E0180709F496C6073E93E0190709F476
:105A8000F9C60130114009F0F7CD809114049091CE
:105A90001504019709F0F0CDC701B6010E946A39DB
:105AA0008DE790E06130710509F024CF80911104F9
:105AB000909112041FCFC701B6010E946A396B0191
:105AC00020911404309115046217730709F4D4CDA2
:105AD0006130710509F0F9C08EE494E00E94671509
